:100000000C942A000C9497010C9447000C94470020
:100010000C9447000C9447000C9447000C94470044
:100020000C9447000C9447000C9447000C94470034
:100030000C9447000C9447000C9447000C94470024
:100040000C9447000C9447000C9447000C94470014
:100050000C94470011241FBECFE5D4E0DEBFCDBF16
:1000600010E0A0E6B0E0EEEEF3E002C005900D92E5
:10007000AE36B107D9F710E0AEE6B0E001C01D9290
:10008000A339B107E1F70E94E8010C94F5010C9443
:1000900000008830D1F1893090F4833061F18430F0
:1000A00028F4813011F1823020F521C0853039F1FA
:1000B000853018F1863029F18730D9F524C08D308C
:1000C00071F18E3048F48A3021F18A3000F18B30A2
:1000D00011F18C3071F521C08F3029F18F3008F18A
:1000E0008D3219F18F3529F522C089EF089580EC02
:1000F000089584EA089580EB089589E9089582E9D6
:10010000089582E8089588EF089580E8089580E9C9
:10011000089588E8089583E8089586EC089581EAB3
:10012000089586E808958EE808958FED089587EF85
:1001300008958FEF0895DF9890E067FD02C0DD9885
:1001400001C0DD9ADE98DE9A9F5F983011F0660F4D
:10015000F4CF90E087FD02C0DD9801C0DD9ADE9803
:10016000DE9A9F5F983011F0880FF4CFDF9ADF9806
:10017000089518BA88EB87BB81E58DB908951BBA3D
:1001800080EE8ABB80EF85BB14BA12BA11BA08950B
:10019000F89418BA88EB87BB81E58DB91BBA80EE5D
:1001A0008ABB80EF85BB14BA12BA11BA82E085BF50
:1001B00080E48BBF789408958FB9779BFECF779AB0
:1001C0008FB10895C49880628FB9779BFECF779ADC
:1001D0008FB16FB9779BFECF779A8FB1C49A08958C
:1001E000C4988FB9779BFECF779A3FB185E08FB9DE
:1001F000779BFECF779A2FB1932F80E0C49A30E09F
:10020000282B392BC9010895C4988FB9779BFECF4D
:10021000779A8FB1FB0107C080818FB9779BFECFA2
:10022000779A8FB131968E2F861B8417A8F3C49AC4
:100230000895C4988FB9779BFECF779A8FB1FB0151
:1002400090E007C01FB8779BFECF779A8FB181935C
:100250009F5F9417B8F3C49A08951F93CF93DF93C9
:10026000EC01162FC398C49881EE8FB9779BFECF0F
:10027000779A8FB1C49A80E363E670E045E00E940C
:10028000040180EABE01412F0E94040180E06EE675
:100290000E94E200C39ADF91CF911F9108959C01C3
:1002A000462FC39881E6B9010E941901C49881EED6
:1002B0008FB9779BFECF779A8FB1C49A80E06FE3B6
:1002C0000E94E200C39A0895C39885E38A95F1F7E6
:1002D000C49A80E06FE30E94E20081E060E00E9447
:1002E000E20082E061E00E94E20083E063E00E94BD
:1002F000E20084E060E00E94E20085E060E00E94AD
:10030000E20086E067E00E94E20081E164E00E9492
:10031000E20080E363E670E045E00E9404018AE2C7
:1003200068E670E045E00E940401C39A08951F92B8
:100330000F920FB60F9211242F933F934F935F9319
:100340006F937F938F939F93AF93BF93EF93FF939D
:100350008EE690E064E00E944F0187E060E40E9436
:10036000E200E0919100F0919200E259FF4F80810C
:10037000809360000E94490068E00E949B0088E82A
:1003800093E120E931E0F9013197F1F70197D9F7CD
:1003900080919100909192000196909392008093A9
:1003A0009100049724F01092920010929100FF9116
:1003B000EF91BF91AF919F918F917F916F915F91DD
:1003C0004F913F912F910F900FBE0F901F90189556
:1003D0000E94C8000E946401C49A82EE8FB9779B84
:0E03E000FECF779A8FB1C498FFCFF894FFCF6D
:0E03EE000C0F00020406080A010305070900AF
:00000001FF
